:020000040800F2
:1000000060060020B1010008B9010008BB0100082A
:10001000BD010008BF010008C10100080000000088
:10002000000000000000000000000000C301000804
:10003000C501000800000000C7010008C901000850
:10004000CB010008CB010008CB010008CB01000860
:10005000CB010008CB010008CB010008CB01000850
:10006000CB010008CB010008CB010008CB01000840
:10007000CB010008CB010008CB010008CB01000830
:10008000CB010008CB010008CB010008CB01000820
:10009000CB010008CB010008CB010008CB01000810
:1000A000CB010008CB010008CB010008CB01000800
:1000B000CB010008CB010008CB010008CB010008F0
:1000C000CB010008CB010008CB010008CB010008E0
:1000D000CB010008CB010008CB010008CB010008D0
:1000E000CB010008CB010008CB010008CB010008C0
:1000F000CB010008CB010008CB010008CB010008B0
:10010000CB010008CB010008CB010008CB0100089F
:10011000CB010008CB010008CB010008CB0100088F
:10012000CB010008CB010008CB010008CB0100087F
:1001300000F002F800F02CF80AA090E8000C8244CD
:100140008344AAF10107DA4501D100F021F8AFF2AA
:10015000090EBAE80F0013F0010F18BFFB1A43F0A5
:100160000103184738020000480200000023002461
:1001700000250026103A28BF78C1FBD8520728BFB7
:1001800030C148BF0B6070471FB51FBD10B510BD13
:1001900000F031F81146FFF7F7FF00F09DF800F08E
:1001A0004FF803B4FFF7F2FF03BC00F053F8000070
:1001B0000948804709480047FEE7FEE7FEE7FEE7FB
:1001C000FEE7FEE7FEE7FEE7FEE7FEE70448054937
:1001D000054A064B70470000630200083101000821
:1001E0006000002060060020600200206002002005
:1001F000704770477047754600F028F8AE46050016
:100200006946534620F00700854618B020B5FFF731
:10021000DDFFBDE820404FF000064FF000074FF033
:1002200000084FF0000B21F00701AC46ACE8C00914
:10023000ACE8C009ACE8C009ACE8C0098D4670471D
:100240000446AFF300802046FFF7ABFF004870473D
:100250000000002001491820ABBEFEE72600020086
:100260007047704742F2107000E0401E0028FCDC2E
:1002700070470000F8B5054614A0006800900426F9
:100280001348806940F00800114988614FF033300D
:1002900010490860091D0860002411E01DF80400E1
:1002A00038B91DB90F200DF8040002E00C200DF83C
:1002B00004001DF80410002000F04AF8601CC4B2CD
:1002C000B442EBDBFFF7CEFFF8BD000038000601BB
:1002D00000100240000C01400120FFF7CBFF02A0FC
:1002E00000F008F800BFFEE768656C6C6F0A776F76
:1002F000726C640070B5054600240EE0285D0A2883
:1003000005D1402000F01BF8601CC4B205E0285D58
:1003100000F007F8601CC4B200BF285D0028EDD1D2
:1003200070BD70B504462146012000F011F8282563
:1003300002E0FFF797FF6D1E002DFAD170BD10B5DA
:10034000044604F18000C1B2002000F001F810BDA5
:1003500000B503460A46012B09D10F48006800F496
:10036000784040F4807010430B49086006E00A486A
:10037000006800F478401043074908604FF480603B
:100380000549091D0860FFF76DFF4FF480600249C1
:100390000831086000BD00000C0C0140AC030008EF
:0C03A00000000020600600006C01000856
:04000005080001B13D
:00000001FF
